:040000000200E632E2
:01000B0032C2
:0100130032BA
:03001B00020806D2
:0100230032AA
:01002B0032A2
:01003300329A
:01003B003292
:01004300328A
:01004B003282
:01005300327A
:03005B000206A0FA
:01006300326A
:01006B003262
:03007300020791F0
:100078000000E2FBEAF2802C0000E0FBEAF08024BA
:10008800E6B50202EBF62200E2B50202EBF222002C
:10009800E0B50202EBF02230F6E0A88220F5D3EAC0
:1000A800C6F582228B822230F6E6A88220F5D98016
:0100B800CF78
:03015D000200B9E4
:0300B900020160E1
:100160001206921206C0D2AF43FF0643FEE0D2A2AF
:10017000C2A1C295C296C2977F00BF0A00500FB2BB
:10018000A1900032C0071206E8D0070F80EC900162
:10019000F41206E8120455D2967534EE75352575BD
:1001A00036807537F8753815E4F539F53A758210EB
:1001B000120567753B00753CF8753D15E4F53EF595
:1001C0003F7582131205B11205E9C2969003E81239
:1001D00006E880F8AD82AE83AFF074812DFAE43E7C
:1001E000FB8F048A828B838CF0E4120EAC74822D18
:1001F000FAE43EFB8F048A828B838CF0E4120EAC0F
:1002000074832DFDE43EFE8D828E838FF074FF0299
:100210000EAC85820885830985F00A90000B75F085
:100220004012097AE5827003F5822274812508FA6A
:10023000E43509FBAC0A8A828B838CF0120F9AFAA0
:10024000BA800C850882850983850AF01201D4746E
:10025000822508FAE43509FBAC0A8A828B838CF08C
:10026000120F9A603774812508F8E43509F9AF0A4E
:10027000888289838FF0120F9AFE04888289838F87
:10028000F0120EACEE2508FEE43509FFAD0A8E82B1
:100290008F838DF0E50B120EAC0203538A828B83A1
:1002A0008CF0E50B120EAC604D74832508FDE4352F
:1002B00009FEAF0A8D828E838FF0120F9AFDBDFF6B
:1002C00002803374812508FDE43509FEAF0A8D8272
:1002D0008E838FF0120F9AF9048D828E838FF01225
:1002E0000EACE92508F9E43509FFAE0A89828F834F
:1002F0008EF0E4120EAC74832508FDE43509FEAFE0
:100300000A8A828B838CF0120F9A8D828E838FF0F3
:10031000120EAC703E74802508F50CE43509F50D1D
:10032000850A0E74812508F8E43509F9AF0A888238
:1003300089838FF0120F9A850C82850D83850EF0CC
:10034000120EAC850882850983850AF01201D475E6
:100350008201228A828B838CF0120F9AFF1F8A827D
:100360008B838CF0EF120EAC758200228582108593
:10037000831185F0127C017B00C3EB950F5062EB7B
:100380002510F8E43511F9AA12888289838AF012BF
:100390000F9AF513BC01348C018B00C3E8950F5004
:1003A00019E82510FAE43511FEAF128A828E838F88
:1003B000F0120F9A6004090880E189048982C00460
:1003C000C0031208A3D003D00480011CE513600E03
:1003D000851382C004C0031208A3D003D0040B808D
:1003E00098BC01058C821208A37582000208A390B4
:1003F00000011206E83093F79000C80206E81206E2
:10040000E8C2A08521828522831206E8D2A0852534
:10041000828526831206E8C2A0852982852A831256
:1004200006E8D2A0852D82852E830206E87534F178
:1004300075350F753680753701E4F538F539F53ABD
:100440007582001205679000011206E83093F7905C
:1004500000C80206E853F1FE75860075C53175C205
:100460000043864043F32843FD2B43FE0453FEF72D
:1004700043FF01C2809000051206E8752105E4F5EE
:1004800022F523F52475250AF526F527F528752983
:1004900005F52AF52BF52C752D01F52EF52FF530E8
:1004A000900001F5F01203FE9000011206E830936F
:1004B000F79000C81206E812042D7534F275350F56
:1004C000753680753701E4F538F539F53A7582E50A
:1004D0001205677534F375350F753680753701E48D
:1004E000F538F539F53A7582E01205677534F4751B
:1004F000350F753680753702E4F538F539F53A75FC
:100500008200020567753B00753CF8753D15E4F502
:100510003EF53F7582101205B1753B00753CF875CC
:100520003D15E4F53EF53F7582131205B10205E96C
:1005300085823485833585F0367537F8753815E44E
:10054000F539F53A758210120567853134853235F3
:100550008533367537F8753815E4F539F53A75820F
:10056000131205670205E9120682D292C2817C004D
:100570007D007E007F00C3EC9537ED9538EE953910
:10058000EF953A5029EC2534F9ED3535FAAB36893B
:10059000828A838BF0120F9AF5C1E58620E0FB0C6E
:1005A000BC00090DBD00050EBE00CB0F80C8D28176
:1005B00022120682D292C2817C007D007E007F00E2
:1005C000C3EC953CED953DEE953EEF953F5017857C
:1005D0003BC1E58620E0FB0CBC00090DBD00050E0B
:1005E000BE00DD0F80DAD281221206147534F07558
:1005F000350F753680753701E4F538F539F53A75FC
:1006000082121205679000011206E83093F79000FD
:10061000C80206E87534F075350F753680753701F8
:10062000E4F538F539F53A75820412056790000152
:100630001206E83093F79000C80206E87534F075AA
:10064000350F753680E4F537F538F539F53A7582AA
:10065000021205679000011206E83093F79000C877
:100660001206E8C292C2819000961206E8D2A0D289
:100670008022AF82D292C2818FC1E58620E0FBD278
:100680008122AF82C292C2818FC1E58620E0FBD277
:020690008122C5
:060FF000000E1902CF8D76
:0E06920075C680E5BEFF30E6FA0043BE0422C6
:09013F00E4F514F515F516F517A9
:1006A000C0E0C0D0C2D874012514F514E43515F5A6
:1006B00015E43516F516E43517F517D0D0D0E0322D
:1006C00075CBEA75CDCBD2BB43CB1022A2AFE433BE
:1006D000FFC2AFAB14AC15AD16AE17EF24FF92AF4F
:1006E0008B828C838DF0EE22858218858319120609
:1006F000CC85821A85831B85F01CF51D1206CCA8BB
:1007000082A983AEF0FFE8C3951AF8E9951BF9EECC
:10071000951CFEEF951DFFAA18AB197C007D00C348
:10072000E89AE99BEE9CEF9D40D22253C0FD32AE89
:1007300082AF838E4A8F4B754C00754D00903C0004
:10074000E4F5F0120F14AC82AD83AEF0FFEC4D4E29
:100750004F7005FC7D018011C374FF9C74FF9DE404
:100760009EE49F50047CFF7DFF75CB00C2D875E4EA
:100770000E75E20075E5448CDA8DDB53C0FD43A8AD
:1007800002D2AF75BE06438701E5C630E6FB02061E
:01079000C0A8
:10014800754000754100754200754300754400759F
:050158004500754600A2
:10079100C020C0E0C0F0C082C083C007C006C00551
:1007A100C004C003C002C001C000C0D075D000C2E7
:1007B100EAE541B54008E5437004F5428028E5418A
:1007C1002400F582E434F0F583E0F5F9AE417F00D1
:1007D1008E828F83A3754A808F4B120FB6AE82AF84
:1007E100838E41754300D0D0D000D001D002D00318
:1007F100D004D005D006D007D083D082D0F0D0E08D
:10080100D0200200BCC020C0E0C0F0C082C083C0C4
:1008110007C006C005C004C003C002C001C000C0BB
:10082100D075D000C28FE54660028031E544248056
:10083100F582E434F0F583E5F9F0AE447F008E8271
:100841008F83A3754A808F4B120FB6AE82AF838E12
:1008510044E545B5440474018001E4F546D0D0D0A7
:1008610000D001D002D003D004D005D006D007D0EB
:1008710083D082D0F0D0E0D0200200BC53F1FDE55E
:10088100FF543F4440F5FF43F33043FD1053FDDF78
:1008910043F8C075FB0275FA2275FC0C439A08D225
:1008A100AB22AF82E54370FCE5402400F582E434DD
:1008B100F0F583EFF0A2AFE433FFC2AFAD407E00AD
:1008C1008D828E83A3754A808E4BC007120FB6AD01
:1008D10082D0078D40E541B5400474018001E4F503
:1008E10043EF24FF92AFE5427005754201D2EA223F
:1008F100AD82AE83AFF0AB47AC488B018C021BBB22
:10090100FF011CE94A602A8D828E838FF0120F9AB3
:10091100FAA3AD82AE838A82C007C006C005C004B7
:10092100C0031208A3D003D004D005D006D007809D
:10093100C922AD82AE83AFF0C007C006C005120F59
:1009410082858247858348D005D006D0078D828E67
:10095100838FF00208F1A2AFE433FFC2AFAE44AD22
:1009610045EF24FF92AFC3EE9D4006EEC39DF58295
:10097100227480C39D2EF58222AD82AE83AFF0A298
:10098100AFE433FCC2AFE545B54404E54660057507
:1009910049008003754901EC24FF92AFE5496004E9
:1009A10075820022E5452480F582E434F0F583E088
:1009B1008D828E838FF0120EACAE457F008E828FBA
:1009C10083A3754A808F4B120FB6AE828E45754652
:0509D100007582012207
:100FF60000000000000000000000000000000000EB
:1010060000000000000000000000000000000000DA
:1010160000000000000000000000000000000000CA
:1010260000000000000000000000000000000000BA
:1010360000000000000000000000000000000000AA
:10104600000000000000000000000000000000009A
:10105600000000000000000000000000000000008A
:10106600000000000000000000000000000000007A
:10107600000000000000000000000000000000006A
:10108600000000000000000000000000000000005A
:1010960000E1C000000000000000000000000000A9
:1010A60000000001C1C200000000000000000000B6
:1010B60000000001E00003C1E6000000000000009F
:1010C60000000000000000F00003C1EE00800000F8
:1010D60000000000000000000000780003C1FE00D0
:1010E600700000000000000000000000003C000747
:1010F600C1FE0070000000000000000000000000BB
:101106001F0007C1FE0038000000000000000000BC
:101116000000001FC007C3FC0038000000000000EC
:101126000000000000040FF00FE3FC003800000090
:1011360000000000000000000407F81FE3FC007830
:1011460000000000000000000000000C07BC1FE7C4
:10115600FC007800000000000000000000000E0700
:10116600DE3EF7FC007C00000000000000000000EE
:10117600000707C67A7FFC00FC00000000000000A4
:101186000000000007FFE37A7BFC00FC0000000083
:101196000000000000000003FFE1F87BFC03F800FC
:1011A6000000000000000000000001FFE0F07B9E50
:1011B60007F80000000000000000000000007FF0BB
:1011C600F03F9E0FF8000000000000000000000045
:1011D600003F90E03F0E1FF00000000000000000FE
:1011E600000000001B89E03F0E3B7000000000007D
:1011F600000000000000001D81A03C0E7B70000076
:10120600000000000000000000000DC1007C0EF68A
:10121600E00000000000000000000000000DC1001A
:10122600780FE5E000000000000000000000030069
:101236000EC100700F43E000000000000000000037
:101246000001000CC100700F03C000000000000088
:101256000000000001800C6100600D06C000000067
:101266000000000000000001C00C4100C01D0DC0C0
:101276000000000000000000000000E00E2100C099
:101286001D09C00000000000000000000000F8E694
:1012960031008019038000000000000000000000FB
:1012A60000FFFE1100803A078000000000000000E9
:1012B600000000007FFF110080360780000000005C
:1012C600000000000000003FE7880000360D000027
:1012D600000000000000000000001FF98001006609
:1012E600050000000000000000000000000784C0A8
:1012F60001006E0300000000000000000000000076
:1013060001E0601920DE020000000000000000007D
:101316000000000070200DA9DF02000000000000A0
:101326000000000000000038100DA9DF06000000D4
:10133600000000000000000000000E005DEBDE066D
:101346000000000000000000000000000007017718
:10135600FBDF0C00000000000000000000000000A1
:101366000381E3FF805C0000000000000000000035
:101376000000000181E7E780FC000000000000009B
:1013860000000000000000C3C42200F800000000B6
:101396000000000000000000000061CC3300F800EF
:1013A600000000000000000000000000003C881360
:1013B60000F800000000000000000000000000002F
:1013C60016881900F8000000000000000000000068
:1013D6000000001B9819E1F000000000000000006A
:1013E6000000000000000F90C9C0F00000000000DF
:1013F6000000000000000000000730CCE27800008A
:101406000000000000000000000000000330CCEFE8
:101416007C00000000000000000000000000000248
:101426007E467FBE000000000000000000000000B5
:10143600000006E7F67FFE00000000000000000046
:1014460000000000000CE7FB3F7E000000000000EB
:1014560000000000000000000CFFE3BE7C0000005E
:10146600000000000000000000000019EFE1DE5C53
:10147600000000000000000000000000000019E766
:10148600F1F87800000000000000000000000000F5
:10149600001BE000E8400000000000000000000023
:1014A600000000001FF0047CC000000000000000E7
:1014B600000000000000001FB0043C800000000097
:1014C600000000000000000000001E700C3D8000BF
:1014D600000000000000000000000000001E0800E0
:1014E6001D000000000000000000000000000000D9
:1014F6001E0C005FC000000000000000000000009D
:101506000000000E0E1FFFE00000000000000000BB
:101516000000000000000F3F0FBFF00000000000B9
:10152600000000000000000000077F873FF0000079
:10153600000000000000000000000000077FE03F00
:10154600300000000000000000000000000000075E
:101556007FF87F300000000000000000000000005F
:1015660000000E6FFFFE30000000000000000000CB
:1015760000000000000E2FDFFE100000000000003B
:101586000000000000000000063FDA3E10000000E8
:101596000000000000000000000000043FCC1E1008
:1015A60000000000000000000000000000000237FC
:1015B600C41E18000000000000000000000000002B
:1015C60000003FC01E1800000000000000000000E0
:1015D60000000000007FC0323C0000000000000058
:1015E60000000000000000007A0022160000000043
:1015F6000000000000000000000000C2000203001E
:10160600000000000000000000000000000187004C
:101616000600C000000000000000000000000000FE
:1016260006030086006000000000000000000000C5
:101636000000000C03020E06180000000000000067
:101646000000000000003803001C070E0000000028
:10165600000000000000000000E001000C03838091
:10166600000000000000000000000001C00180181A
:101676000E00C0000000000000000000000007008F
:1016860000C0380C006000000000000000000000F0
:10169600000C000070200C0030000000000000006C
:1016A6000000000018000018403CC01800000000B0
:1016B600000000000000003000000CC07F800C001D
:1016C600000000000000000000002000000D81FF67
:1016D600000C0000000000000000000000400000B8
:1016E6000781B410060000000000000000000000A2
:1016F600C4A0000700D8110300000000000000008D
:1017060000000184100006126000030000000000C3
:101716000000000000030690000C70A0200180006D
:1017260000000000000000000306900018618022FF
:1017360000C00000000000000000000606F800706F
:10174600EC002A00600000000000000000000C030E
:101756007803E078003A0030000000000000000046
:101766000018037803803B003200100000000000E0
:10177600000000003003BC0F801E00360008000089
:10178600000000000000006001FC09800E007C00E3
:101796000C000000000000000000C001DC08000092
:1017A600007C0004000000000000000000C000BC37
:1017B600080000007800060000000000000000009D
:1017C600E0009C0800008072000C00000000000091
:1017D600000000F000DE1C000080F400380000006D
:1017E600000000000000F8005E1C0000C2E800F8DF
:1017F6000000000000000000007C004E0C000042CB
:10180600E003100000000000000000003FFF2E0C67
:10181600000042D01C100000000000000000003F45
:10182600FFEE0E000042E038080000000000000055
:1018360000003FFFF61C000023E0700C00000000D3
:1018460000000000001FF3F304000021C070040034
:1018560000000000000000000780F306300011C001
:10186600F86400000000000000000003807903F027
:10187600001180C886000000000000000000018002
:101886007D01F800198787020000000000000000B3
:10189600000180FFC037C00BFF07030000000000F7
:1018A600000000000100FFC033E00FFE0603000049
:1018B600000000000000000301FFE000600DFC06D0
:1018C60007000000000000000000030133A00060D4
:1018D6000780040100000000000000000003010072
:1018E600B000400780040100000000000000000076
:1018F600020100D001C003000F0300000000000039
:10190600000000020300D801C003801FC2000000CF
:10191600000000000000060300C801C0018020E6A8
:10192600000000000000000000040200E803C00000
:10193600807A6C000000000000000000040600A48D
:10194600020000804F780000000000000000000C3C
:101956008600A40600004097F0000000000000008A
:101966000000084601940E000441CBA000000000D0
:1019760000000000000846015F0704646337E000CA
:1019860000000000000000001826017FE7164667E9
:10199600FF800000000000000000001006017FF438
:1019A6008643F1FF00000000000000000000100662
:1019B60001FFF4ACDF18FE0000000000000000008C
:1019C60000100C3BF8FC6C98187800000000000032
:1019D60000000000100C6FF8FF6DB7987000000053
:1019E60000000000000000100C7FFEFBFFFD8D20B4
:1019F6004000000000000000000010085FFFE7FF45
:101A0600FF8360FC00000000000000000010187F4B
:101A1600FFC1FF3C80C0FE00000000000000000087
:101A260010183FFFE3DE7E81C0FE000000000000CC
:101A360000000010103FFFFF867AC9C0EE000000CC
:101A460000000000000030101FFDFF8770F180C607
:101A560000000000000000000070301EFDFF87FF40
:101A66009704DE0000000000000000007FE03EDD7D
:101A7600FEFFFFBB0FDE0000000000000000007F3D
:101A8600F0FFD1DEFFFBAA0FCE0000000000000031
:101A960000007FE1FFB1DF1FF77C0FEF00000000C1
:101AA60000000000006BE3FEB1EF3F7E5C0FCF004D
:101AB60000000000000000007C67FD61EFEE7ED4B0
:101AC6000FCF00000000000000000061CCFF41576E
:101AD600E67CB5AFCE0000000000000000007CD917
:101AE600FC814F2219FB66CF0000000000000000B9
:101AF6000068B3F8014F811BFFF6E7000000000005
:101B06000000000069E1F800C3E11FFFF7E70000ED
:101B1600000000000000007FC1F00083FC1DEDF70F
:101B2600EF00000000000000000061C3F00081FF2C
:101B3600024FF6EF8000000000000000006387E01F
:101B46000001FFC043DEEF8000000000000000003F
:101B56006187E00001FFFE03BFFFC0000000000038
:101B6600000000FB8FE00000FFFFC39FFEC00000E7
:101B7600000000000000E79E600000FFFFF9FFFC88
:101B8600C00000000000000000E31C6000008FFFA2
:101B9600FFFFFEC000000000000000008FB0400004
:101BA6000083FFFFFFFEE000000000000000008051
:101BB600E0400000A03FFFFE1FE000000000000024
:101BC600000100C0C00000E00FFFFF9F60000000A2
:101BD600000000000100C0E00001C003FFFF9F708D
:101BE6000000000000000001FF81E00001C000FFCE
:101BF600FF9F300000000000000001FF817000011F
:101C0600C0001FFF9F3000000000000000018F137E
:101C1600380003400007FF8D180000000000000098
:101C26000386123E0002400007FC00880000000008
:101C360000000001CC261C0006400003DC008800E2
:101C460000000000000001CC440F009CC00003D43B
:101C5600004C0000000000000001D84407C6F880D0
:101C66000001C600440000000000000001F08801E9
:101C7600FFE0800001C20006000000000000000135
:101C8600E19801FF80800001C20002000000000010
:101C9600000003C12000C001800000C00003000056
:101CA600000000000003824000C001900000C10057
:101CB600010000000000000007040000C00310003F
:101CC60000E00001800000000000000C080003F0A6
:101CD60003100000E000008000000000000038183B
:101CE6000007F003100000E00000C0000000000044
:101CF600006010000F8003100000600000C00000AC
:101D06000000000080200019800210000060000022
:101D160060000000000003006001310002100000B6
:101D26006000006000000000000600C002630002C0
:101D36003000006000002000000000001C01800749
:101D4600C7000220000060000020000000000070B4
:101D560003000F8F00062000006000003000000026
:101D66000000E006001A1E000620000060000010B9
:101D76000000000001800C00621E0004200000200C
:101D86000000100000000003001800823C00042040
:101D9600000020000010000000000600100106FCF4
:101DA600000420000020000010000000000C00309D
:101DB6000401F8000420000030000030000000009C
:101DC6001800201803F8000C200000300000B000B6
:101DD6000000001000403007F0000C2000079000C3
:101DE60000F0000000002000406007B0000820005E
:101DF6000FF00001F000000000600080C00F30000E
:101E06000820001C780007E00000000040008180E8
:101E16000F700008200038180009E000000000C01C
:101E26000187001E60100820007B8F000D800000D7
:101E36000000C0010E001678300820007FCD000794
:101E4600000000000180031C00343CB8182000FF8D
:101E5600EF301E0000000001800238002C1EFE1824
:101E66002001FE7F00380000000003080674006CA5
:101E76001FFF982001703F88F00000000003000457
:101E8600E7F0CC1FFFD820036007FF8000000000AA
:101E9600063004DFFFD83FFFF86006C003FF80006E
:101EA6000000000C600DFE7FF03FCFF86007C00316
:101EB600FF80000000001CE00BFFF0607F8FF860E1
:101EC60005C003FFC0000000001DC00FFFE0007F3B
:101ED600CFF8605FC003FFC0000000003BC01FFFDB
:101EE600E0007FFFF8617FC003FFC00000000073C1
:101EF600C01FFFE000FFFFF043FBE003FFE0000030
:101F0600000077803FFFE007FFFFF0C3C3E003FF59
:101F1600E000000000FF807FFFC007FFFFF0C787DB
:101F2600F001FFF000000000FFC06FFFC00FFFFFD1
:101F3600D0C787F803FFF000000001FFF1EFFF8034
:101F46001BFFFFF0C787EC03FFF000000001FFFB5B
:101F5600CFFF8007FFFFF0CF83F606FFF0000000FB
:101F660001FFFF8FFF8007FFFFB0CF83F206FFE080
:101F760000000001FFFF8EFF8087FFFFB1CE81F2D8
:101F8600067FE000000001FFFFFEFFC187FFFFB1F3
:101F9600DC93F9827FE000000001FFFFFCFFC18FA8
:101FA600FFFF21D897F8C27FE000000001FFFF0085
:101FB600FFC10FFFFF23D09FFC603FE00000000041
:101FC600FFFE00FFC21FFFFB63B19FFE0031C00092
:101FD600000000FFFC00FF401FFFF263B11FFF80FF
:101FE6001000000000007FF801FF003FFF7643E18C
:101FF6003FFFC01000000000003FE001FE007FFE32
:102006006643F13FFEE01800000000003FC007FEF7
:1020160000DFFCC6C1F87FFF600800000000003F3B
:102026008007FE009FF8CE81FF7FFF200C00000096
:1020360000003F000FFC001FF08C81FF7FFF100C9B
:1020460000000000001E001FFC001D808C83FFFCAA
:10205600FF1004000000000004001FFC001900DD52
:1020660001FFFC7D1006000000000000003FF800A4
:102076001000FD05FFFC79000600000000000000CE
:102086007FF8001000F917FFFC3900060000000079
:10209600000000FFF8001000F817FFF831000200FA
:1020A600000000000000FFF0001000F817FFF80124
:1020B600000300000000000001FFF0003000F00FF8
:1020C600FFF801800300000000000001FFF000207F
:1020D60000F01FFFF801800200000000000001FF71
:1020E600F0002001F3FFFFF0018062000000000015
:1020F6000003FFF0002003E3FFFFF0018023000050
:102106000000000003FFE0004002C79FFFF000C090
:102116000100000000000001FFE0004006C71FFFAD
:10212600F000C00100000000000001FFE000C00751
:10213600C61FFFF000C00100000000000003FFE022
:10214600008007881FFFF00060010000000000000B
:1021560003FFE0018007980FFFF000600300000016
:1021660000000003FF40010007B00FFFF00020034E
:1021760000000000000003FE40030007B00FFFF060
:1021860000300300000000000007FC400600073096
:102196000FFFF000100300000000000007FC80069F
:1021A6000007700FFFE000180300000000000007A2
:1021B600F0800C0007600FFFC0000803000000005D
:1021C600000007C080080003E00FFFC0000C0300FA
:1021D6000000000000078080100003E007FF800079
:1021E6000403000000000000070180300003C00760
:1021F600FF80000403000000000000000100200032
:10220600018003FF0000060300000000000000013B
:10221600006000010003F700000603000000000054
:1022260000000300C000000001F6000002010000EB
:1022360000000000000200C000000000760000035D
:102246000100000000000000020180000000007E86
:102256000000030100000000000000020100000071
:1022660000007C00000301000000000000000603DF
:1022760000000000003C000001010000000000001A
:1022860000040200000000003C0000018100000084
:102296000000000004060000000000380000018174
:1022A6000000000000000004040000000000180008
:1022B600000181000000000000000C080000000082
:1022C600000000000081000000000000000C080073
:1022D6000000000000000000810000000000000077
:1022E6001818000000000000000000C18000000077
:1022F60000000018100000000000000000004180EF
:10230600000000000000F8100000000000000000BF
:10231600004080000000000003F0300000000000D4
:102326000000000040F0000000000003F03800004C
:1023360000000000000000CEF0000000000003F6E0
:1023460038000000000000000001FFF0000000005F
:102356000003FFF8000000000000000001F230005A
:1023660000000000033DF80000000000000000012E
:102376008030000000000003501000000000000044
:10238600000001801800000000000340100000005B
:1023960000000000000180780000000000024010EC
:1023A600000000000000000001C1F800000000006D
:1023B6000341F8000000000000000003A3F800003D
:1023C60000000001E7F8000000000000000003EF35
:1023D600F0000000000003FFF8000000000000000D
:1023E6000003FFF8000000000007FFF800000000EF
:1023F6000000000007FFF800000000000F0FE000DB
:102406000000000000000001FDB8000000000018F8
:102416000130000000000000000003C1DC000000E5
:10242600003C300030000000000000000003A00C5B
:102436000000000067FE0030000000000000000001
:1024460003801FFE000000F8FE00300000000000C0
:102456000000000300FFF7000000FC1F80300000B2
:102466000000000000000305FE19800001FF07C000
:102476007800000000000000000307703F800001A4
:10248600FFC7E07800000000000000000300E07FC6
:10249600C00001FFC7F87800000000000000000738
:1024A60001F1FFC00001FFFFFFF80000000000007F
:1024B600000007C7FFFFC00001FFFFFFF800000094
:1024C600000000000007FFFFFFC00001FFFFFFF054
:1024D600000000000000000007FFFFFFC00001FF32
:1024E600FFFFE0000000000000000007FFFFFFC044
:1024F6000000FFFF0000000000000000000003FFD6
:10250600FFFFC000007FF000000000000000000098
:102516000001C7FFFFC0000000000000000000002F
:10252600000000000003FFFFC000000000000000E4
:10253600000000000000000000FFFF800000000017
:1025460000000000000000000000000007E000009E
:102556000000000000000000000000000000000075
:102566000000000000000000000000000000000065
:102576000000000000000000000000000000000055
:102586000000000000000000000000000000000045
:1028B6000000000000000000000E00000000000004
:1028C6000000000000001F000000000000000000E3
:1028D60000000015000000000000000000000000DD
:1028E6001580F0000000000000000000003681F8AE
:1028F60000000000000000000F8032C11800000038
:1029060000000000000D802161680000000000004A
:1029160000000AC021636800000000000000001AE1
:102926006060332CF0000000000000E01420603EE0
:1029360014F8000000000001F034B0D01D17A80004
:1029460000000000019C6859805A0FA80000000092
:102956000001EE680BA0440B2C0000000000018370
:10296600D02F4028031C00000000000189A00E8023
:1029760030031400000000000144A00D00200214E2
:102986000000000000014040020020001E00000080
:102996000000F140C0040020010E00000000019973
:1029A6004040080020000E00000000018940401051
:1029B6000020060F0000000001AF402010000004B8
:1029C600030000000001A7400020000000030000F3
:1029D600000001C300000000000003000000000129
:1029E600C9400040000000030000000001C2400092
:1029F600000000000300000000018040000000000D
:102A060000030000000001804000000200000700F3
:102A16000000000180000000040000030000000028
:102A26000180000000040000030000000001A0086F
:102A360000100000000E00000000008000000000F2
:102A460000000E0000000000C00400001000000E90
:102A56000000000000D00000006000000E00000032
:102A660000004000040FA000000E000000000068F7
:102A76000004100000000E000000000024000420E6
:102A86000202000E000000000030000724020400CD
:102A96000E00000000001800084E0C00000E00009A
:102AA6000000000D0000020820000E0000000000DB
:102AB600060121F20FE1000E00000000000681C1B0
:102AC6007E0012000E000000000003408182000E0E
:102AD600000E0000000000034080020002040E0009
:102AE6000000000001C08200000022160000000065
:102AF6000001A0820002002214000000000001A8CC
:102B060082000200222C000000000000A0820006C5
:102B1600001228000000000000A48200061C121803
:102B2600000000000000E48040067014D800000099
:102B3600000000C4842004E0582C000000000000BF
:102B4600D304410580903C000000000000F30441DE
:102B56000738141C00000000000071041007E08410
:102B66001C000000000000690E1083E0041C000039
:102B760000000000350FF882F9003C00000000005C
:102B8600001B083C407A002C0000000000000D00ED
:102B96003C403C00980000000000000F0FEE20E0D3
:102BA6000C380000000000000C00E2102009E000D4
:102BB60000000000000C10F00020170000000000CC
:102BC60000000C180802003C000000000000000C89
:102BD600177001006C000000000000000E130800D2
:102BE6008058000000000000000E12000F21B00007
:102BF6000000000000000D0200FE13E000000000CF
:102C06000000001930007872C000000000000000CB
:102C16001A4100018280000000000000001E000032
:102C2600010280000000000000001B0080030680F7
:102C3600000000000000000F007FFC06C00000003E
:102C4600000000000F80480006C0000000000000E1
:102C56000003C0280081600000000000000003405F
:102C660031C140200000000000000001A0113E001C
:102C7600200000000000000001A0060680600000A1
:102C8600000000000000D00C03002000000000003F
:102C9600000000F00E0580E00000000000000000CB
:102CA600681FC841E00000000000000000387BF803
:102CB60021BE00000000000000003591F83E3F00F4
:102CC6000000000000000037E312606D8000000085
:102CD6000000000FF7030BE7DA8000000000000099
:102CE6001C72010159C28000000000000013AA02F4
:102CF6000651A280000000000000147803A83BBE25
:102D060080000000000000304801F8FFFE8000004F
:102D16000000000038600067E33AC00000000000D1
:102D260000144408033D1F40000000000000147416
:102D360020468001600000000000001C6440420044
:102D4600003000000000000018690042500030000A
:102D560000000000000A2A00414000300000000088
:102D660000000A2C03234000B00000000000000D04
:102D7600A838614003E0000000000000062FC38170
:102D8600C0CDE000000000000007D03CD0583F80D6
:102D960000000000000001FFF3C9EF7E0000000004
:102DA600000000007FFF67FFFC000000000000003D
:102DB600003FF03FFF800000000000000000000020
:102DC6001FE00000000000000000000000000000FE
:102DD60000000000000000000000000000000000ED
:102DE60000000000000000000000000000000000DD
:102DF60000000000000000000000000000000000CD
:102E060000000000000000000000000000000000BC
:1009D600C0E0C082C083C007C006C005C0D075D0C5
:1009E60000AFE975E900EF30E40890F121E4F07515
:1009F600E101EF30E24A90F121E0FFBF013F90F1C3
:100A060022E07039A2AFE433FFC2AF90F100E5D91E
:100A1600F0E024DF40227E0090F100E0FDC3EE9D71
:100A26005010EE2401F582E434F1F583E5D9F00E99
:100A360080E690F1227401F0EF24FF92AF75E10198
:100A4600D0D0D005D006D007D083D082D0E0327582
:100A5600E1309000011206E875E1019000011206EE
:100A6600E875E13A9000011206E875E13B90000155
:100A76001206E89030B2E49390DF07F09030B3E4CA
:100A86009390DF08F09030B4E49390DF09F0903053
:100A9600B5E49390DF0AF09030B6E49390DF0BF064
:100AA6009030B7E49390DF0CF09030B8E49390DF89
:100AB6000DF09030B9E49390DF0EF09030BAE493E5
:100AC60090DF0FF09030BBE49390DF10F09030BCD5
:100AD600E49390DF06F09030BDE49390DF11F09040
:100AE60030BEE49390DF1AF09030BFE49390DF1BA2
:100AF600F09030C0E493FF90DF1474F05FF0903014
:100B0600C1E49390DF15F09030C2E49390DF16F0C5
:100B16009030C3E49390DF17F09030C4E49390DFF5
:100B260018F09030C5E49390DF19F09030C6E49346
:100B360090DF1CF09030C7E49390DF1DF09030C832
:100B4600E49390DF1EF09030C9E49390DF1FF0909D
:100B560030CAE49390DF2DF09030CBE49390DF2CF5
:100B6600F09030CCE49390DF2BF09030CDE493906E
:100B7600DF2AF090DF2E74FEF0759114439A01D2AD
:100B8600AF90000A1206E875E1019000011206E82E
:100B960075E10190DF3BE0FFBF01F875E10390DFEF
:100BA6003BE0FFBF110280F67EE87F0390DF3BE06B
:100BB600FDBD0102801D8E048F051EBEFF011FECC8
:100BC6004D6010900001C007C0061206E8D006D09E
:100BD6000780D9EE4F7039D295C297C29690DF3B07
:100BE600E0FF7E00C3EE9F501BD2A19000C8C00755
:100BF600C0061206E8C2A19000C81206E8D006D0C8
:100C0600070E80E09003E8C0071206E8D00780D2FE
:100C160090F121E4F022E58290DF06F022E5829051
:100C2600DF2EF02290F121E0FFBF01012275E103E2
:100C360090DF3BE0FFBF01F875E10290F1217401FE
:100C4600F090F122E4F022AD82AE83AFF0D296C2EC
:100C560097C295E51E24DF400690F121E06008D298
:100C660095C2967582002275E101900005C007C005
:100C760006C0051206E8D005D006D00790DF3BE097
:100C8600FCBC0102803075E130900005C007C0064B
:100C9600C0051206E875E1019000051206E8D005C8
:100CA600D006D00790DF3BE0FCBC01028008D2955D
:100CB600C2967582002275E13A900005C007C0060B
:100CC600C0051206E8D005D006D0077C0390DF3BAE
:100CD600E0FBBB0102801FEC601C75E10190000A7D
:100CE600C007C006C005C0041206E8D004D005D06F
:100CF60006D0071C80D790DF3BE0FCBC0102802DAC
:100D060090DF3BE0FC7B00C3EB9C501BD295900030
:100D160064C004C0031206E8C2959000641206E897
:100D2600D003D0040B80E0C29675820022D297755C
:100D3600E13A90000AC007C006C0051206E8D005D1
:100D4600D006D007851ED97C00C3EC951E5016EC44
:100D56002DF9E43EFA8F0389828A838BF0120F9A6B
:100D6600F5D90C80E4C29775E10390000A1206E8F3
:100D760090DF3BE0FFBF010280287E00C3EE9F505C
:100D86001BD295900032C007C0061206E8C29590A5
:100D960000321206E8D006D0070E80E0C2967582B1
:100DA600002290F1217402F075E1047E647F00EE6A
:100DB6004F605A90F121E07010D297C29690000AC7
:100DC6001206E8C2977582012290DF3BE0FDBD1353
:100DD600028003BD152275E10190000A1206E8752E
:100DE600E13A90000A1206E8D295C29690000A12DD
:100DF60006E8C295758200221EBEFF011F90000103
:100E0600C007C0061206E8D006D00780A275E10129
:100E160090000A1206E8D295C29690000A1206E8D9
:100E2600C2957582002290F122E0F58222AD82AE53
:100E360083AFF090F122E07003F58222A2AFE43393
:100E4600F54AC2AF8D018E028F0390F100E08982D0
:100E56008A838BF0120EAC0DBD00010E7B0090F163
:100E660000E0FAC3EB9A501FEB2DF8E43EF98F022F
:100E7600EB2401F582E434F1F583E0888289838AE4
:100E8600F0120EAC0B80D790F122E4F0E54A24FF75
:100E960092AF7582012290DF3AE024B7F582229064
:060EA600DF39E0F58222B5
:1030B2000E005D93B1CA839322F80034B956E93009
:0E30C2003C0B6E92872F1A00597F3F0F0000C3
:06011500E478FFF6D8FDBE
:1000F3007902E94400601B7A019030CE7821759330
:10010300F1E493F2A308B800020593D9F4DAF27587
:0201130093FF58
:1000BC00C000A88118C0D0B6001B18B67800401537
:1000CC00B69F005010C0E0E65407B406005004E69A
:0A00DC0054F8F6D0E0D0D0D0003286
:100EAC0020F71130F6138883A88220F509F6A88361
:100EBC007583002280FEF280F5F022E54A454B60F6
:100ECC00467A01E54A25E0F54AE54B334012F54BED
:100EDC00E582954AE583954B40030A80E6C3E54BD2
:100EEC0013F54BE54A13F54AC3E582954AF5F0E54F
:100EFC0083954B4005F58385F082C3E54B13F54B89
:100F0C00E54A13F54ADAE122AAF0FBE582854AF0BC
:100F1C00A4FCADF0E583854AF0A42DFDE435F0FE8C
:100F2C00E582854BF0A42DFDE5F03EFEE433FFEAAF
:100F3C00854AF0A42EFEE5F03FFFE583854BF0A437
:100F4C002EFEE5F03FFFE582854CF0A42EFEE5F089
:100F5C003FFFEB854AF0A42FFFEA854BF0A42FFF4F
:100F6C00E583854CF0A42FFFE582854DF0A42F8EF0
:060F7C00F08D838C82223F
:10011B007800E84400600A79007593F0E4F309D89D
:10012B00FC7821E84401600C790290F000E4F0A324
:04013B00D8FCD9FA19
:100F8200AA82AB83120F9A6003A380F8C3E5829A08
:080F9200F582E5839BF5832243
:0D00E60075814D120FECE58260030200B938
:100F9A0020F71430F6148883A88220F507E6A88380
:100FAA0075830022E280F7E49322E022C2D5E5832A
:100FBA0030E70DD2D5E4C39582F582E49583F583B3
:100FCA00E54B30E70BE4C3954AF54AE4954BF54BFC
:100FDA00120EC730D50BE4C39582F582E49583F5EA
:060FEA0083227582002243
:00000001FF
